{
  "contractName": "Adoption",
  "abi": [
    {
      "inputs": [],
      "payable": false,
      "stateMutability": "nonpayable",
      "type": "constructor"
    },
    {
      "anonymous": false,
      "inputs": [
        {
          "indexed": false,
          "internalType": "uint256",
          "name": "id",
          "type": "uint256"
        },
        {
          "indexed": false,
          "internalType": "address",
          "name": "buyer",
          "type": "address"
        },
        {
          "indexed": false,
          "internalType": "uint256",
          "name": "price",
          "type": "uint256"
        }
      ],
      "name": "ProductPurchased",
      "type": "event"
    },
    {
      "anonymous": false,
      "inputs": [
        {
          "indexed": false,
          "internalType": "uint256",
          "name": "id",
          "type": "uint256"
        },
        {
          "indexed": false,
          "internalType": "address",
          "name": "buyer",
          "type": "address"
        },
        {
          "indexed": false,
          "internalType": "uint256",
          "name": "price",
          "type": "uint256"
        }
      ],
      "name": "ServiceBooked",
      "type": "event"
    },
    {
      "constant": true,
      "inputs": [
        {
          "internalType": "uint256",
          "name": "",
          "type": "uint256"
        }
      ],
      "name": "adopters",
      "outputs": [
        {
          "internalType": "address",
          "name": "",
          "type": "address"
        }
      ],
      "payable": false,
      "stateMutability": "view",
      "type": "function"
    },
    {
      "constant": true,
      "inputs": [
        {
          "internalType": "uint256",
          "name": "",
          "type": "uint256"
        }
      ],
      "name": "donations",
      "outputs": [
        {
          "internalType": "uint256",
          "name": "",
          "type": "uint256"
        }
      ],
      "payable": false,
      "stateMutability": "view",
      "type": "function"
    },
    {
      "constant": true,
      "inputs": [
        {
          "internalType": "address",
          "name": "",
          "type": "address"
        }
      ],
      "name": "hasVoted",
      "outputs": [
        {
          "internalType": "bool",
          "name": "",
          "type": "bool"
        }
      ],
      "payable": false,
      "stateMutability": "view",
      "type": "function"
    },
    {
      "constant": true,
      "inputs": [
        {
          "internalType": "uint256",
          "name": "",
          "type": "uint256"
        },
        {
          "internalType": "uint256",
          "name": "",
          "type": "uint256"
        }
      ],
      "name": "petAdoptionHistory",
      "outputs": [
        {
          "internalType": "address",
          "name": "",
          "type": "address"
        }
      ],
      "payable": false,
      "stateMutability": "view",
      "type": "function"
    },
    {
      "constant": true,
      "inputs": [],
      "name": "productCount",
      "outputs": [
        {
          "internalType": "uint256",
          "name": "",
          "type": "uint256"
        }
      ],
      "payable": false,
      "stateMutability": "view",
      "type": "function"
    },
    {
      "constant": true,
      "inputs": [
        {
          "internalType": "uint256",
          "name": "",
          "type": "uint256"
        }
      ],
      "name": "products",
      "outputs": [
        {
          "internalType": "uint256",
          "name": "id",
          "type": "uint256"
        },
        {
          "internalType": "string",
          "name": "name",
          "type": "string"
        },
        {
          "internalType": "uint256",
          "name": "price",
          "type": "uint256"
        },
        {
          "internalType": "bool",
          "name": "isAvailable",
          "type": "bool"
        }
      ],
      "payable": false,
      "stateMutability": "view",
      "type": "function"
    },
    {
      "constant": true,
      "inputs": [],
      "name": "serviceCount",
      "outputs": [
        {
          "internalType": "uint256",
          "name": "",
          "type": "uint256"
        }
      ],
      "payable": false,
      "stateMutability": "view",
      "type": "function"
    },
    {
      "constant": true,
      "inputs": [
        {
          "internalType": "uint256",
          "name": "",
          "type": "uint256"
        }
      ],
      "name": "services",
      "outputs": [
        {
          "internalType": "uint256",
          "name": "id",
          "type": "uint256"
        },
        {
          "internalType": "string",
          "name": "name",
          "type": "string"
        },
        {
          "internalType": "uint256",
          "name": "price",
          "type": "uint256"
        },
        {
          "internalType": "bool",
          "name": "isAvailable",
          "type": "bool"
        }
      ],
      "payable": false,
      "stateMutability": "view",
      "type": "function"
    },
    {
      "constant": true,
      "inputs": [
        {
          "internalType": "address",
          "name": "",
          "type": "address"
        },
        {
          "internalType": "uint256",
          "name": "",
          "type": "uint256"
        }
      ],
      "name": "userAdoptionHistory",
      "outputs": [
        {
          "internalType": "uint256",
          "name": "",
          "type": "uint256"
        }
      ],
      "payable": false,
      "stateMutability": "view",
      "type": "function"
    },
    {
      "constant": true,
      "inputs": [
        {
          "internalType": "uint256",
          "name": "",
          "type": "uint256"
        }
      ],
      "name": "vaccinated",
      "outputs": [
        {
          "internalType": "bool",
          "name": "",
          "type": "bool"
        }
      ],
      "payable": false,
      "stateMutability": "view",
      "type": "function"
    },
    {
      "constant": true,
      "inputs": [
        {
          "internalType": "uint256",
          "name": "",
          "type": "uint256"
        }
      ],
      "name": "vaccinationInfo",
      "outputs": [
        {
          "internalType": "string",
          "name": "",
          "type": "string"
        }
      ],
      "payable": false,
      "stateMutability": "view",
      "type": "function"
    },
    {
      "constant": true,
      "inputs": [
        {
          "internalType": "uint256",
          "name": "",
          "type": "uint256"
        }
      ],
      "name": "votes",
      "outputs": [
        {
          "internalType": "uint256",
          "name": "",
          "type": "uint256"
        }
      ],
      "payable": false,
      "stateMutability": "view",
      "type": "function"
    },
    {
      "constant": false,
      "inputs": [
        {
          "internalType": "uint256",
          "name": "petId",
          "type": "uint256"
        }
      ],
      "name": "adopt",
      "outputs": [
        {
          "internalType": "uint256",
          "name": "",
          "type": "uint256"
        }
      ],
      "payable": false,
      "stateMutability": "nonpayable",
      "type": "function"
    },
    {
      "constant": false,
      "inputs": [
        {
          "internalType": "uint256",
          "name": "petId",
          "type": "uint256"
        }
      ],
      "name": "vote",
      "outputs": [
        {
          "internalType": "uint256",
          "name": "",
          "type": "uint256"
        }
      ],
      "payable": false,
      "stateMutability": "nonpayable",
      "type": "function"
    },
    {
      "constant": true,
      "inputs": [],
      "name": "getVotes",
      "outputs": [
        {
          "internalType": "uint256[16]",
          "name": "",
          "type": "uint256[16]"
        }
      ],
      "payable": false,
      "stateMutability": "view",
      "type": "function"
    },
    {
      "constant": false,
      "inputs": [
        {
          "internalType": "uint256",
          "name": "petId",
          "type": "uint256"
        }
      ],
      "name": "donate",
      "outputs": [],
      "payable": true,
      "stateMutability": "payable",
      "type": "function"
    },
    {
      "constant": false,
      "inputs": [
        {
          "internalType": "string",
          "name": "_name",
          "type": "string"
        },
        {
          "internalType": "uint256",
          "name": "_price",
          "type": "uint256"
        }
      ],
      "name": "addProduct",
      "outputs": [],
      "payable": false,
      "stateMutability": "nonpayable",
      "type": "function"
    },
    {
      "constant": false,
      "inputs": [
        {
          "internalType": "string",
          "name": "_name",
          "type": "string"
        },
        {
          "internalType": "uint256",
          "name": "_price",
          "type": "uint256"
        }
      ],
      "name": "addService",
      "outputs": [],
      "payable": false,
      "stateMutability": "nonpayable",
      "type": "function"
    },
    {
      "constant": false,
      "inputs": [
        {
          "internalType": "uint256",
          "name": "_id",
          "type": "uint256"
        }
      ],
      "name": "buyProduct",
      "outputs": [],
      "payable": true,
      "stateMutability": "payable",
      "type": "function"
    },
    {
      "constant": false,
      "inputs": [
        {
          "internalType": "uint256",
          "name": "_id",
          "type": "uint256"
        }
      ],
      "name": "bookService",
      "outputs": [],
      "payable": true,
      "stateMutability": "payable",
      "type": "function"
    },
    {
      "constant": true,
      "inputs": [],
      "name": "getAdopters",
      "outputs": [
        {
          "internalType": "address[16]",
          "name": "",
          "type": "address[16]"
        }
      ],
      "payable": false,
      "stateMutability": "view",
      "type": "function"
    },
    {
      "constant": false,
      "inputs": [
        {
          "internalType": "uint256",
          "name": "petId",
          "type": "uint256"
        },
        {
          "internalType": "string",
          "name": "info",
          "type": "string"
        }
      ],
      "name": "registerVaccination",
      "outputs": [],
      "payable": false,
      "stateMutability": "nonpayable",
      "type": "function"
    },
    {
      "constant": false,
      "inputs": [
        {
          "internalType": "uint256",
          "name": "petId",
          "type": "uint256"
        }
      ],
      "name": "cancelVaccination",
      "outputs": [],
      "payable": false,
      "stateMutability": "nonpayable",
      "type": "function"
    },
    {
      "constant": true,
      "inputs": [
        {
          "internalType": "uint256",
          "name": "petId",
          "type": "uint256"
        }
      ],
      "name": "getVaccinationStatus",
      "outputs": [
        {
          "internalType": "bool",
          "name": "",
          "type": "bool"
        },
        {
          "internalType": "string",
          "name": "",
          "type": "string"
        }
      ],
      "payable": false,
      "stateMutability": "view",
      "type": "function"
    },
    {
      "constant": true,
      "inputs": [],
      "name": "getDonations",
      "outputs": [
        {
          "internalType": "uint256[16]",
          "name": "",
          "type": "uint256[16]"
        }
      ],
      "payable": false,
      "stateMutability": "view",
      "type": "function"
    },
    {
      "constant": true,
      "inputs": [
        {
          "internalType": "uint256",
          "name": "petId",
          "type": "uint256"
        }
      ],
      "name": "getDonationAmount",
      "outputs": [
        {
          "internalType": "uint256",
          "name": "",
          "type": "uint256"
        }
      ],
      "payable": false,
      "stateMutability": "view",
      "type": "function"
    },
    {
      "constant": true,
      "inputs": [
        {
          "internalType": "uint256",
          "name": "productId",
          "type": "uint256"
        }
      ],
      "name": "getProduct",
      "outputs": [
        {
          "internalType": "string",
          "name": "",
          "type": "string"
        },
        {
          "internalType": "uint256",
          "name": "",
          "type": "uint256"
        },
        {
          "internalType": "bool",
          "name": "",
          "type": "bool"
        }
      ],
      "payable": false,
      "stateMutability": "view",
      "type": "function"
    },
    {
      "constant": true,
      "inputs": [
        {
          "internalType": "uint256",
          "name": "serviceId",
          "type": "uint256"
        }
      ],
      "name": "getService",
      "outputs": [
        {
          "internalType": "string",
          "name": "",
          "type": "string"
        },
        {
          "internalType": "uint256",
          "name": "",
          "type": "uint256"
        },
        {
          "internalType": "bool",
          "name": "",
          "type": "bool"
        }
      ],
      "payable": false,
      "stateMutability": "view",
      "type": "function"
    },
    {
      "constant": true,
      "inputs": [
        {
          "internalType": "address",
          "name": "user",
          "type": "address"
        }
      ],
      "name": "getUserAdoptionHistory",
      "outputs": [
        {
          "internalType": "uint256[]",
          "name": "",
          "type": "uint256[]"
        }
      ],
      "payable": false,
      "stateMutability": "view",
      "type": "function"
    },
    {
      "constant": true,
      "inputs": [
        {
          "internalType": "uint256",
          "name": "petId",
          "type": "uint256"
        }
      ],
      "name": "getPetAdoptionHistory",
      "outputs": [
        {
          "internalType": "address[]",
          "name": "",
          "type": "address[]"
        }
      ],
      "payable": false,
      "stateMutability": "view",
      "type": "function"
    }
  ],
  "bytecode": "0x6080604052600060375560006038553480156200001b57600080fd5b506200006a6040518060400160405280600881526020017f50657420466f6f64000000000000000000000000000000000000000000000000815250662386f26fc10000620001f660201b60201c565b620000b86040518060400160405280600781526020017f446f6720546f79000000000000000000000000000000000000000000000000008152506611c37937e08000620001f660201b60201c565b620001066040518060400160405280600781526020017f436174204265640000000000000000000000000000000000000000000000000081525066470de4df820000620001f660201b60201c565b620001546040518060400160405280600881526020017f47726f6f6d696e67000000000000000000000000000000000000000000000000815250666a94d74f430000620002e360201b60201c565b620001a26040518060400160405280600b81526020017f56616363696e6174696f6e00000000000000000000000000000000000000000081525066b1a2bc2ec50000620002e360201b60201c565b620001f06040518060400160405280600b81526020017f5065742053697474696e6700000000000000000000000000000000000000000081525066470de4df820000620002e360201b60201c565b620004f4565b600081116200023c576040517f08c379a00000000000000000000000000000000000000000000000000000000081526004016200023390620004c1565b60405180910390fd5b60405180608001604052806037548152602001838152602001828152602001600115158152506035600060375481526020019081526020016000206000820151816000015560208201518160010190805190602001906200029f929190620003d0565b506040820151816002015560608201518160030160006101000a81548160ff0219169083151502179055509050506037600081548092919060010191905055505050565b6000811162000329576040517f08c379a00000000000000000000000000000000000000000000000000000000081526004016200032090620004c1565b60405180910390fd5b60405180608001604052806038548152602001838152602001828152602001600115158152506036600060385481526020019081526020016000206000820151816000015560208201518160010190805190602001906200038c929190620003d0565b506040820151816002015560608201518160030160006101000a81548160ff0219169083151502179055509050506038600081548092919060010191905055505050565b828054600181600116156101000203166002900490600052602060002090601f016020900481019282601f106200041357805160ff191683800117855562000444565b8280016001018555821562000444579182015b828111156200044357825182559160200191906001019062000426565b5b50905062000453919062000457565b5090565b6200047c91905b80821115620004785760008160009055506001016200045e565b5090565b90565b60006200048e601f83620004e3565b91507f5072696365206d7573742062652067726561746572207468616e207a65726f006000830152602082019050919050565b60006020820190508181036000830152620004dc816200047f565b9050919050565b600082825260208201905092915050565b612c6d80620005046000396000f3fe6080604052600436106101cd5760003560e01c80638eb39c89116100f7578063cc1a40b711610095578063ef0e239b11610064578063ef0e239b14610721578063f14faf6f14610760578063f8626af81461077c578063fcdcc819146107b9576101cd565b8063cc1a40b714610665578063e0f6ef871461068e578063e25f8416146106b9578063e4e97747146106e4576101cd565b8063b15247d9116100d1578063b15247d9146105a1578063b9db15b4146105ca578063c22c4f4314610609578063cb215d0914610649576101cd565b80638eb39c8914610512578063a88202e11461053b578063a9dae80514610564576101cd565b806343ae80d31161016f5780637ec9b4a91161013e5780637ec9b4a91461043f57806382777ee71461047c5780638588b2c5146104b95780638642269e146104f6576101cd565b806343ae80d3146103485780635df81330146103855780636675835f146103c25780637acc0b20146103ff576101cd565b80630c79186c116101ab5780630c79186c146102775780630dc96015146102b4578063107c459f146102df5780633de4eb171461031d576101cd565b80630121b93f146101d2578063062375261461020f57806309eef43e1461023a575b600080fd5b3480156101de57600080fd5b506101f960048036036101f49190810190611f8e565b6107f6565b6040516102069190612941565b60405180910390f35b34801561021b57600080fd5b5061022461092a565b6040516102319190612941565b60405180910390f35b34801561024657600080fd5b50610261600480360361025c9190810190611ed5565b610930565b60405161026e91906126f6565b60405180910390f35b34801561028357600080fd5b5061029e60048036036102999190810190611f8e565b61094f565b6040516102ab9190612941565b60405180910390f35b3480156102c057600080fd5b506102c96109b7565b6040516102d691906126b8565b60405180910390f35b3480156102eb57600080fd5b5061030660048036036103019190810190611f8e565b610a01565b604051610314929190612711565b60405180910390f35b34801561032957600080fd5b50610332610b31565b60405161033f919061267a565b60405180910390f35b34801561035457600080fd5b5061036f600480360361036a9190810190611f8e565b610bb2565b60405161037c919061265f565b60405180910390f35b34801561039157600080fd5b506103ac60048036036103a79190810190611f8e565b610be5565b6040516103b99190612941565b60405180910390f35b3480156103ce57600080fd5b506103e960048036036103e49190810190611efe565b610bfd565b6040516103f69190612941565b60405180910390f35b34801561040b57600080fd5b5061042660048036036104219190810190611f8e565b610c2b565b6040516104369493929190612993565b60405180910390f35b34801561044b57600080fd5b5061046660048036036104619190810190611f8e565b610d00565b6040516104739190612741565b60405180910390f35b34801561048857600080fd5b506104a3600480360361049e9190810190611f8e565b610db0565b6040516104b091906126f6565b60405180910390f35b3480156104c557600080fd5b506104e060048036036104db9190810190611f8e565b610dd7565b6040516104ed9190612941565b60405180910390f35b610510600480360361050b9190810190611f8e565b610f5e565b005b34801561051e57600080fd5b5061053960048036036105349190810190611f8e565b61106d565b005b34801561054757600080fd5b50610562600480360361055d9190810190611fb7565b6111c2565b005b34801561057057600080fd5b5061058b60048036036105869190810190611f8e565b611309565b6040516105989190612696565b60405180910390f35b3480156105ad57600080fd5b506105c860048036036105c39190810190611f3a565b6113fb565b005b3480156105d657600080fd5b506105f160048036036105ec9190810190611f8e565b6114e3565b60405161060093929190612763565b60405180910390f35b34801561061557600080fd5b50610630600480360361062b9190810190611f8e565b611645565b6040516106409493929190612993565b60405180910390f35b610663600480360361065e9190810190611f8e565b61171a565b005b34801561067157600080fd5b5061068c60048036036106879190810190611f3a565b611850565b005b34801561069a57600080fd5b506106a3611938565b6040516106b09190612941565b60405180910390f35b3480156106c557600080fd5b506106ce61193e565b6040516106db91906126b8565b60405180910390f35b3480156106f057600080fd5b5061070b6004803603610706919081019061200b565b611989565b604051610718919061265f565b60405180910390f35b34801561072d57600080fd5b5061074860048036036107439190810190611f8e565b6119d4565b60405161075793929190612763565b60405180910390f35b61077a60048036036107759190810190611f8e565b611b36565b005b34801561078857600080fd5b506107a3600480360361079e9190810190611f8e565b611be9565b6040516107b09190612941565b60405180910390f35b3480156107c557600080fd5b506107e060048036036107db9190810190611ed5565b611c01565b6040516107ed91906126d4565b60405180910390f35b60008082101580156108095750600f8211155b61081257600080fd5b602060003373ffffffffffffffffffffffffffffffffffffffff1673ffffffffffffffffffffffffffffffffffffffff16815260200190815260200160002060009054906101000a900460ff161561089f576040517f08c379a0000000000000000000000000000000000000000000000000000000008152600401610896906128e1565b60405180910390fd5b6001602060003373ffffffffffffffffffffffffffffffffffffffff1673ffffffffffffffffffffffffffffffffffffffff16815260200190815260200160002060006101000a81548160ff02191690831515021790555060016010836010811061090657fe5b01600082825401925050819055506010826010811061092157fe5b01549050919050565b60385481565b602080528060005260406000206000915054906101000a900460ff1681565b60008082101580156109625750600f8211155b6109a1576040517f08c379a000000000000000000000000000000000000000000000000000000000815260040161099890612841565b60405180910390fd5b602582601081106109ae57fe5b01549050919050565b6109bf611c98565b601080806020026040519081016040528092919082601080156109f7576020028201915b8154815260200190600101908083116109e3575b5050505050905090565b6000606060008310158015610a175750600f8311155b610a56576040517f08c379a0000000000000000000000000000000000000000000000000000000008152600401610a4d90612881565b60405180910390fd5b60218360108110610a6357fe5b602091828204019190069054906101000a900460ff1660226000858152602001908152602001600020808054600181600116156101000203166002900480601f016020809104026020016040519081016040528092919081815260200182805460018160011615610100020316600290048015610b215780601f10610af657610100808354040283529160200191610b21565b820191906000526020600020905b815481529060010190602001808311610b0457829003601f168201915b5050505050905091509150915091565b610b39611cbb565b6000601080602002604051908101604052809291908260108015610ba8576020028201915b8160009054906101000a900473ffffffffffffffffffffffffffffffffffffffff1673ffffffffffffffffffffffffffffffffffffffff1681526020019060010190808311610b5e575b5050505050905090565b60008160108110610bbf57fe5b016000915054906101000a900473ffffffffffffffffffffffffffffffffffffffff1681565b60108160108110610bf257fe5b016000915090505481565b60236020528160005260406000208181548110610c1657fe5b90600052602060002001600091509150505481565b6035602052806000526040600020600091509050806000015490806001018054600181600116156101000203166002900480601f016020809104026020016040519081016040528092919081815260200182805460018160011615610100020316600290048015610cdd5780601f10610cb257610100808354040283529160200191610cdd565b820191906000526020600020905b815481529060010190602001808311610cc057829003601f168201915b5050505050908060020154908060030160009054906101000a900460ff16905084565b60226020528060005260406000206000915090508054600181600116156101000203166002900480601f016020809104026020016040519081016040528092919081815260200182805460018160011615610100020316600290048015610da85780601f10610d7d57610100808354040283529160200191610da8565b820191906000526020600020905b815481529060010190602001808311610d8b57829003601f168201915b505050505081565b60218160108110610dbd57fe5b60209182820401919006915054906101000a900460ff1681565b6000808210158015610dea5750600f8211155b610e29576040517f08c379a0000000000000000000000000000000000000000000000000000000008152600401610e2090612841565b60405180910390fd5b3360008360108110610e3757fe5b0160006101000a81548173ffffffffffffffffffffffffffffffffffffffff021916908373ffffffffffffffffffffffffffffffffffffffff160217905550602360003373ffffffffffffffffffffffffffffffffffffffff1673ffffffffffffffffffffffffffffffffffffffff168152602001908152602001600020829080600181540180825580915050906001820390600052602060002001600090919290919091505550602460008381526020019081526020016000203390806001815401808255809150509060018203906000526020600020016000909192909190916101000a81548173ffffffffffffffffffffffffffffffffffffffff021916908373ffffffffffffffffffffffffffffffffffffffff16021790555050819050919050565b60006035600083815260200190815260200160002090508060030160009054906101000a900460ff16610fc6576040517f08c379a0000000000000000000000000000000000000000000000000000000008152600401610fbd90612801565b60405180910390fd5b806002015434101561100d576040517f08c379a0000000000000000000000000000000000000000000000000000000008152600401611004906128c1565b60405180910390fd5b60008160030160006101000a81548160ff0219169083151502179055507fa530f889d7f1bd9a73028e48944ca013ab2c6624a31e3fa26f923f4bb719abd5823383600201546040516110619392919061295c565b60405180910390a15050565b6000811015801561107f5750600f8111155b6110be576040517f08c379a00000000000000000000000000000000000000000000000000000000081526004016110b590612881565b60405180910390fd5b3373ffffffffffffffffffffffffffffffffffffffff16600082601081106110e257fe5b0160009054906101000a900473ffffffffffffffffffffffffffffffffffffffff1673ffffffffffffffffffffffffffffffffffffffff161461115a576040517f08c379a000000000000000000000000000000000000000000000000000000000815260040161115190612921565b60405180910390fd5b60006021826010811061116957fe5b602091828204019190066101000a81548160ff021916908315150217905550604051806020016040528060008152506022600083815260200190815260200160002090805190602001906111be929190611cde565b5050565b600082101580156111d45750600f8211155b611213576040517f08c379a000000000000000000000000000000000000000000000000000000000815260040161120a90612881565b60405180910390fd5b3373ffffffffffffffffffffffffffffffffffffffff166000836010811061123757fe5b0160009054906101000a900473ffffffffffffffffffffffffffffffffffffffff1673ffffffffffffffffffffffffffffffffffffffff16146112af576040517f08c379a00000000000000000000000000000000000000000000000000000000081526004016112a6906127e1565b60405180910390fd5b6001602183601081106112be57fe5b602091828204019190066101000a81548160ff02191690831515021790555080602260008481526020019081526020016000209080519060200190611304929190611cde565b505050565b60606000821015801561131d5750600f8211155b61135c576040517f08c379a0000000000000000000000000000000000000000000000000000000008152600401611353906127a1565b60405180910390fd5b602460008381526020019081526020016000208054806020026020016040519081016040528092919081815260200182805480156113ef57602002820191906000526020600020905b8160009054906101000a900473ffffffffffffffffffffffffffffffffffffffff1673ffffffffffffffffffffffffffffffffffffffff16815260200190600101908083116113a5575b50505050509050919050565b6000811161143e576040517f08c379a000000000000000000000000000000000000000000000000000000000815260040161143590612821565b60405180910390fd5b604051806080016040528060375481526020018381526020018281526020016001151581525060356000603754815260200190815260200160002060008201518160000155602082015181600101908051906020019061149f929190611d5e565b506040820151816002015560608201518160030160006101000a81548160ff0219169083151502179055509050506037600081548092919060010191905055505050565b6060600080603754841061152c576040517f08c379a000000000000000000000000000000000000000000000000000000000815260040161152390612901565b60405180910390fd5b611534611dde565b6035600086815260200190815260200160002060405180608001604052908160008201548152602001600182018054600181600116156101000203166002900480601f0160208091040260200160405190810160405280929190818152602001828054600181600116156101000203166002900480156115f55780601f106115ca576101008083540402835291602001916115f5565b820191906000526020600020905b8154815290600101906020018083116115d857829003601f168201915b50505050508152602001600282015481526020016003820160009054906101000a900460ff1615151515815250509050806020015181604001518260600151829250935093509350509193909250565b6036602052806000526040600020600091509050806000015490806001018054600181600116156101000203166002900480601f0160208091040260200160405190810160405280929190818152602001828054600181600116156101000203166002900480156116f75780601f106116cc576101008083540402835291602001916116f7565b820191906000526020600020905b8154815290600101906020018083116116da57829003601f168201915b5050505050908060020154908060030160009054906101000a900460ff16905084565b603854811061175e576040517f08c379a000000000000000000000000000000000000000000000000000000000815260040161175590612861565b60405180910390fd5b60006036600083815260200190815260200160002090508060030160009054906101000a900460ff166117c6576040517f08c379a00000000000000000000000000000000000000000000000000000000081526004016117bd906128a1565b60405180910390fd5b806002015434101561180d576040517f08c379a0000000000000000000000000000000000000000000000000000000008152600401611804906128c1565b60405180910390fd5b7fe53435ca8bd2f9eea4941bbab9fd4d6dcefe77b46846324190dd2093206f3bb8823383600201546040516118449392919061295c565b60405180910390a15050565b60008111611893576040517f08c379a000000000000000000000000000000000000000000000000000000000815260040161188a90612821565b60405180910390fd5b60405180608001604052806038548152602001838152602001828152602001600115158152506036600060385481526020019081526020016000206000820151816000015560208201518160010190805190602001906118f4929190611d5e565b506040820151816002015560608201518160030160006101000a81548160ff0219169083151502179055509050506038600081548092919060010191905055505050565b60375481565b611946611c98565b602560108060200260405190810160405280929190826010801561197f576020028201915b81548152602001906001019080831161196b575b5050505050905090565b602460205281600052604060002081815481106119a257fe5b906000526020600020016000915091509054906101000a900473ffffffffffffffffffffffffffffffffffffffff1681565b60606000806038548410611a1d576040517f08c379a0000000000000000000000000000000000000000000000000000000008152600401611a1490612861565b60405180910390fd5b611a25611e08565b6036600086815260200190815260200160002060405180608001604052908160008201548152602001600182018054600181600116156101000203166002900480601f016020809104026020016040519081016040528092919081815260200182805460018160011615610100020316600290048015611ae65780601f10611abb57610100808354040283529160200191611ae6565b820191906000526020600020905b815481529060010190602001808311611ac957829003601f168201915b50505050508152602001600282015481526020016003820160009054906101000a900460ff1615151515815250509050806020015181604001518260600151829250935093509350509193909250565b60008110158015611b485750600f8111155b611b87576040517f08c379a0000000000000000000000000000000000000000000000000000000008152600401611b7e90612841565b60405180910390fd5b60003411611bca576040517f08c379a0000000000000000000000000000000000000000000000000000000008152600401611bc1906127c1565b60405180910390fd5b3460258260108110611bd857fe5b016000828254019250508190555050565b60258160108110611bf657fe5b016000915090505481565b6060602360008373ffffffffffffffffffffffffffffffffffffffff1673ffffffffffffffffffffffffffffffffffffffff168152602001908152602001600020805480602002602001604051908101604052809291908181526020018280548015611c8c57602002820191906000526020600020905b815481526020019060010190808311611c78575b50505050509050919050565b604051806102000160405280601090602082028038833980820191505090505090565b604051806102000160405280601090602082028038833980820191505090505090565b828054600181600116156101000203166002900490600052602060002090601f016020900481019282601f10611d1f57805160ff1916838001178555611d4d565b82800160010185558215611d4d579182015b82811115611d4c578251825591602001919060010190611d31565b5b509050611d5a9190611e32565b5090565b828054600181600116156101000203166002900490600052602060002090601f016020900481019282601f10611d9f57805160ff1916838001178555611dcd565b82800160010185558215611dcd579182015b82811115611dcc578251825591602001919060010190611db1565b5b509050611dda9190611e32565b5090565b60405180608001604052806000815260200160608152602001600081526020016000151581525090565b60405180608001604052806000815260200160608152602001600081526020016000151581525090565b611e5491905b80821115611e50576000816000905550600101611e38565b5090565b90565b600081359050611e6681612bfc565b92915050565b600082601f830112611e7d57600080fd5b8135611e90611e8b82612a0c565b6129df565b91508082526020830160208301858383011115611eac57600080fd5b611eb7838284612ba9565b50505092915050565b600081359050611ecf81612c13565b92915050565b600060208284031215611ee757600080fd5b6000611ef584828501611e57565b91505092915050565b60008060408385031215611f1157600080fd5b6000611f1f85828601611e57565b9250506020611f3085828601611ec0565b9150509250929050565b60008060408385031215611f4d57600080fd5b600083013567ffffffffffffffff811115611f6757600080fd5b611f7385828601611e6c565b9250506020611f8485828601611ec0565b9150509250929050565b600060208284031215611fa057600080fd5b6000611fae84828501611ec0565b91505092915050565b60008060408385031215611fca57600080fd5b6000611fd885828601611ec0565b925050602083013567ffffffffffffffff811115611ff557600080fd5b61200185828601611e6c565b9150509250929050565b6000806040838503121561201e57600080fd5b600061202c85828601611ec0565b925050602061203d85828601611ec0565b9150509250929050565b60006120538383612086565b60208301905092915050565b600061206b8383612641565b60208301905092915050565b61208081612b73565b82525050565b61208f81612b2b565b82525050565b61209e81612b2b565b82525050565b6120ad81612a6c565b6120b78184612ae2565b92506120c282612a38565b8060005b838110156120f35781516120da8782612047565b96506120e583612aae565b9250506001810190506120c6565b505050505050565b600061210682612a77565b6121108185612aed565b935061211b83612a42565b8060005b8381101561214c5781516121338882612047565b975061213e83612abb565b92505060018101905061211f565b5085935050505092915050565b61216281612a82565b61216c8184612afe565b925061217782612a52565b8060005b838110156121a857815161218f878261205f565b965061219a83612ac8565b92505060018101905061217b565b505050505050565b60006121bb82612a8d565b6121c58185612b09565b93506121d083612a5c565b8060005b838110156122015781516121e8888261205f565b97506121f383612ad5565b9250506001810190506121d4565b5085935050505092915050565b61221781612b3d565b82525050565b600061222882612aa3565b6122328185612b1a565b9350612242818560208601612bb8565b61224b81612beb565b840191505092915050565b600061226182612a98565b61226b8185612b1a565b935061227b818560208601612bb8565b61228481612beb565b840191505092915050565b600061229c601183612b1a565b91507f50657420494420697320696e76616c69640000000000000000000000000000006000830152602082019050919050565b60006122dc602283612b1a565b91507f446f6e6174696f6e206d7573742062652067726561746572207468616e207a6560008301527f726f0000000000000000000000000000000000000000000000000000000000006020830152604082019050919050565b6000612342602583612b1a565b91507f4f6e6c792061646f707465722063616e2072656769737465722076616363696e60008301527f6174696f6e0000000000000000000000000000000000000000000000000000006020830152604082019050919050565b60006123a8601883612b1a565b91507f50726f64756374206973206e6f7420617661696c61626c6500000000000000006000830152602082019050919050565b60006123e8601f83612b1a565b91507f5072696365206d7573742062652067726561746572207468616e207a65726f006000830152602082019050919050565b6000612428600e83612b1a565b91507f496e76616c6964207065742049440000000000000000000000000000000000006000830152602082019050919050565b6000612468601283612b1a565b91507f496e76616c6964207365727669636520494400000000000000000000000000006000830152602082019050919050565b60006124a8600d83612b1a565b91507f496e76616c6964207065744964000000000000000000000000000000000000006000830152602082019050919050565b60006124e8601883612b1a565b91507f53657276696365206973206e6f7420617661696c61626c6500000000000000006000830152602082019050919050565b6000612528601483612b1a565b91507f496e73756666696369656e74207061796d656e740000000000000000000000006000830152602082019050919050565b6000612568601983612b1a565b91507f416464726573732068617320616c726561647920766f746564000000000000006000830152602082019050919050565b60006125a8601283612b1a565b91507f496e76616c69642070726f6475637420494400000000000000000000000000006000830152602082019050919050565b60006125e8602383612b1a565b91507f4f6e6c792061646f707465722063616e2063616e63656c2076616363696e617460008301527f696f6e00000000000000000000000000000000000000000000000000000000006020830152604082019050919050565b61264a81612b69565b82525050565b61265981612b69565b82525050565b60006020820190506126746000830184612095565b92915050565b60006102008201905061269060008301846120a4565b92915050565b600060208201905081810360008301526126b081846120fb565b905092915050565b6000610200820190506126ce6000830184612159565b92915050565b600060208201905081810360008301526126ee81846121b0565b905092915050565b600060208201905061270b600083018461220e565b92915050565b6000604082019050612726600083018561220e565b8181036020830152612738818461221d565b90509392505050565b6000602082019050818103600083015261275b8184612256565b905092915050565b6000606082019050818103600083015261277d818661221d565b905061278c6020830185612650565b612799604083018461220e565b949350505050565b600060208201905081810360008301526127ba8161228f565b9050919050565b600060208201905081810360008301526127da816122cf565b9050919050565b600060208201905081810360008301526127fa81612335565b9050919050565b6000602082019050818103600083015261281a8161239b565b9050919050565b6000602082019050818103600083015261283a816123db565b9050919050565b6000602082019050818103600083015261285a8161241b565b9050919050565b6000602082019050818103600083015261287a8161245b565b9050919050565b6000602082019050818103600083015261289a8161249b565b9050919050565b600060208201905081810360008301526128ba816124db565b9050919050565b600060208201905081810360008301526128da8161251b565b9050919050565b600060208201905081810360008301526128fa8161255b565b9050919050565b6000602082019050818103600083015261291a8161259b565b9050919050565b6000602082019050818103600083015261293a816125db565b9050919050565b60006020820190506129566000830184612650565b92915050565b60006060820190506129716000830186612650565b61297e6020830185612077565b61298b6040830184612650565b949350505050565b60006080820190506129a86000830187612650565b81810360208301526129ba8186612256565b90506129c96040830185612650565b6129d6606083018461220e565b95945050505050565b6000604051905081810181811067ffffffffffffffff82111715612a0257600080fd5b8060405250919050565b600067ffffffffffffffff821115612a2357600080fd5b601f19601f8301169050602081019050919050565b6000819050919050565b6000819050602082019050919050565b6000819050919050565b6000819050602082019050919050565b600060109050919050565b600081519050919050565b600060109050919050565b600081519050919050565b600081519050919050565b600081519050919050565b6000602082019050919050565b6000602082019050919050565b6000602082019050919050565b6000602082019050919050565b600081905092915050565b600082825260208201905092915050565b600081905092915050565b600082825260208201905092915050565b600082825260208201905092915050565b6000612b3682612b49565b9050919050565b60008115159050919050565b600073ffffffffffffffffffffffffffffffffffffffff82169050919050565b6000819050919050565b6000612b7e82612b85565b9050919050565b6000612b9082612b97565b9050919050565b6000612ba282612b49565b9050919050565b82818337600083830152505050565b60005b83811015612bd6578082015181840152602081019050612bbb565b83811115612be5576000848401525b50505050565b6000601f19601f8301169050919050565b612c0581612b2b565b8114612c1057600080fd5b50565b612c1c81612b69565b8114612c2757600080fd5b5056fea365627a7a723158201e71f9c9e26f054dced12c354bdbcf0089106860a15644a48c9d529d97d096246c6578706572696d656e74616cf564736f6c63430005110040",
  "source": "pragma solidity ^0.5.0;\r\npragma experimental ABIEncoderV2;\r\n\r\ncontract Adoption {\r\n  address[16] public adopters;\r\n\r\n  uint[16] public votes;       \r\n  mapping(address => bool) public hasVoted;\r\n  // New: Store vaccination status and info\r\n  bool[16] public vaccinated;\r\n  mapping(uint => string) public vaccinationInfo;\r\n\r\n  // New mappings to track adoption history\r\n  mapping(address => uint[]) public userAdoptionHistory; // Tracks pets adopted by a user\r\n  mapping(uint => address[]) public petAdoptionHistory;  // Tracks users who adopted a specific pet\r\n\r\n  uint[16] public donations;  // Stores donation amounts for each pet\r\n//\r\n  struct Product {\r\n    uint id;\r\n    string name;\r\n    uint price; // Price in wei\r\n    bool isAvailable;\r\n  }\r\n\r\n  struct Service {\r\n    uint id;\r\n    string name;\r\n    uint price; // Price in wei\r\n    bool isAvailable;\r\n  }\r\n\r\n  mapping(uint => Product) public products; // Mapping for products\r\n  mapping(uint => Service) public services; // Mapping for services\r\n  uint public productCount = 0;             // Counter for products\r\n  uint public serviceCount = 0;             // Counter for services\r\n\r\n\r\n  event ProductPurchased(uint id, address buyer, uint price);\r\n  event ServiceBooked(uint id, address buyer, uint price);\r\n\r\n  constructor() public {\r\n    // Prepopulate some products and services\r\n    addProduct(\"Pet Food\", 0.01 ether);\r\n    addProduct(\"Dog Toy\", 0.005 ether);\r\n    addProduct(\"Cat Bed\", 0.02 ether);\r\n    addService(\"Grooming\", 0.03 ether);\r\n    addService(\"Vaccination\", 0.05 ether);\r\n    addService(\"Pet Sitting\", 0.02 ether);\r\n  }\r\n  \r\n  // Adopting a pet\r\n    function adopt(uint petId) public returns (uint) {\r\n      require(petId >= 0 && petId <= 15, \"Invalid pet ID\");\r\n      \r\n      adopters[petId] = msg.sender; // Track the current adopter\r\n\r\n      userAdoptionHistory[msg.sender].push(petId);\r\n      // Add the current adopter to the adoption history of the pet\r\n      petAdoptionHistory[petId].push(msg.sender);\r\n\r\n      return petId;\r\n    }\r\n\r\n    function vote(uint petId) public returns (uint) {\r\n      require(petId >= 0 && petId <= 15);\r\n      require(!hasVoted[msg.sender], \"Address has already voted\");\r\n\r\n      hasVoted[msg.sender] = true;\r\n      votes[petId] += 1;\r\n      return votes[petId];\r\n    }\r\n    function getVotes() public view returns (uint[16] memory) {\r\n      return votes;\r\n    }\r\n\r\n\r\n    // Donate to a pet\r\n    function donate(uint petId) public payable {\r\n      require(petId >= 0 && petId <= 15, \"Invalid pet ID\");\r\n      require(msg.value > 0, \"Donation must be greater than zero\");\r\n\r\n      donations[petId] += msg.value;\r\n    }\r\n\r\n    //Add Product\r\n    function addProduct(string memory _name, uint _price) public {\r\n      require(_price > 0, \"Price must be greater than zero\");\r\n      products[productCount] = Product(productCount, _name, _price, true);\r\n      productCount++;\r\n    }\r\n    \r\n    //Add Service\r\n    function addService(string memory _name, uint _price) public {\r\n      require(_price > 0, \"Price must be greater than zero\");\r\n      services[serviceCount] = Service(serviceCount, _name, _price, true);\r\n      serviceCount++;\r\n    }\r\n\r\n    //Buy Product\r\n    function buyProduct(uint _id) public payable {\r\n      Product storage product = products[_id];\r\n      require(product.isAvailable, \"Product is not available\");\r\n      require(msg.value >= product.price, \"Insufficient payment\");\r\n      product.isAvailable = false; // Mark product as unavailable\r\n      emit ProductPurchased(_id, msg.sender, product.price);\r\n    }\r\n\r\n    //Book Service\r\n    function bookService(uint _id) public payable {\r\n      require(_id < serviceCount, \"Invalid service ID\");\r\n      Service storage service = services[_id];\r\n      require(service.isAvailable, \"Service is not available\");\r\n      require(msg.value >= service.price, \"Insufficient payment\");\r\n      emit ServiceBooked(_id, msg.sender, service.price);\r\n    }\r\n\r\n    // Retrieving the adopters\r\n    function getAdopters() public view returns (address[16] memory) {\r\n      return adopters;\r\n    }\r\n\r\n    // Register vaccination with some details\r\n    function registerVaccination(uint petId, string memory info) public {\r\n      require(petId >= 0 && petId <= 15, \"Invalid petId\");\r\n      require(adopters[petId] == msg.sender, \"Only adopter can register vaccination\");\r\n      vaccinated[petId] = true;\r\n      vaccinationInfo[petId] = info;\r\n    }\r\n\r\n    // Cancel vaccination registration\r\n    function cancelVaccination(uint petId) public {\r\n      require(petId >= 0 && petId <= 15, \"Invalid petId\");\r\n      require(adopters[petId] == msg.sender, \"Only adopter can cancel vaccination\");\r\n      vaccinated[petId] = false;\r\n      vaccinationInfo[petId] = \"\";\r\n    }\r\n\r\n    // Fetch vaccination status\r\n    function getVaccinationStatus(uint petId) public view returns (bool, string memory) {\r\n      require(petId >= 0 && petId <= 15, \"Invalid petId\");\r\n      return (vaccinated[petId], vaccinationInfo[petId]);\r\n    }\r\n\r\n      // Retrieving the donations\r\n    function getDonations() public view returns (uint[16] memory) {\r\n      return donations;\r\n    }\r\n    \r\n    // Retrieve donation amount for a specific pet\r\n    function getDonationAmount(uint petId) public view returns (uint) {\r\n      require(petId >= 0 && petId <= 15, \"Invalid pet ID\");\r\n      return donations[petId];\r\n    }\r\n\r\n    // Retrieve all products\r\n    function getProduct(uint productId) public view returns (string memory, uint, bool) {\r\n      require(productId < productCount, \"Invalid product ID\");\r\n      Product memory product = products[productId];\r\n      return (product.name, product.price, product.isAvailable);\r\n    }\r\n\r\n    // Retrieve all services\r\n    function getService(uint serviceId) public view returns (string memory, uint, bool) {\r\n      require(serviceId < serviceCount, \"Invalid service ID\");\r\n      Service memory service = services[serviceId];\r\n      return (service.name, service.price, service.isAvailable);\r\n    }\r\n\r\n    \r\n    // Retrieving adoption history for a specific user\r\n    function getUserAdoptionHistory(address user) public view returns (uint[] memory) {\r\n      return userAdoptionHistory[user];\r\n    }\r\n    \r\n\r\n    // Retrieving the adoption history of a specific pet\r\n    function getPetAdoptionHistory(uint petId) public view returns (address[] memory) {\r\n      require(petId >= 0 && petId <= 15, \"Pet ID is invalid\");\r\n      return petAdoptionHistory[petId];\r\n\r\n    }\r\n\r\n}\r\n\r\n\r\n\r\n\r\n",
  "sourcePath": "/Users/bellaweng/Desktop/pet-shop-box-master/contracts/Adoption.sol",
  "compiler": {
    "name": "solc",
    "version": "0.5.17+commit.d19bba13.Emscripten.clang"
  },
  "schemaVersion": "3.4.16",
  "updatedAt": "2024-12-13T21:39:54.465Z",
  "networkType": "ethereum",
  "devdoc": {
    "methods": {}
  },
  "userdoc": {
    "methods": {}
  }
}